:100000000C942A000C943B0B0C9447000C94470072
:100010000C9447000C9447000C9447000C94470044
:100020000C9447000C9447000C9447000C94470034
:100030000C9447000C9447000C9447000C94470024
:100040000C9447000C9447000C9447000C94470014
:100050000C94470011241FBECFE5D4E0DEBFCDBF16
:1000600010E0A0E6B0E0E4EAFAE102C005900D92EB
:10007000A236B107D9F710E0A2E6B0E001C01D92A8
:10008000A636B107E1F70E94650B0C94500D0C9455
:100090000000DF93CF93CDB7DEB72B970FB6F89460
:1000A000DEBF0FBECDBF89836A838981282F30E0F0
:1000B0003B872A878A859B858236910509F472C021
:1000C0002A853B852336310509F40CC18A859B8539
:1000D0008136910509F06CC18A81282F30E039877B
:1000E0002887888599858130910531F12885398562
:1000F000223031052CF488859985009761F04FC036
:10010000288539852230310541F1888599858330EC
:100110009105A1F144C0A3E5B0E0E3E5F0E0808102
:100120008F7B8C93A3E5B0E0E3E5F0E08081877FEF
:100130008C9394E09F833DC1A3E5B0E0E3E5F0E05C
:10014000808180648C93A3E5B0E0E3E5F0E08081FA
:10015000877F8C9324E02F832CC1A3E5B0E0E3E5F7
:10016000F0E080818F7B8C93A3E5B0E0E3E5F0E0E5
:10017000808188608C9334E03F831BC1A3E5B0E0AD
:10018000E3E5F0E0808180648C93A3E5B0E0E3E5F3
:10019000F0E0808188608C9384E08F830AC191E0D5
:1001A0009F8307C18A81282F30E03E832D838D8174
:1001B0009E8181309105B1F12D813E812230310542
:1001C0002CF48D819E81009771F089C02D813E8134
:1001D0002230310509F445C08D819E81833091051F
:1001E00009F45EC07CC0AFE4B0E0EFE4F0E08081F1
:1001F0008E7F8C93AFE4B0E0EFE4F0E080818D7F00
:100200008C93AEE4B0E0EEE4F0E08081877F8C93E5
:10021000AEE4B0E0EEE4F0E080818F7E8C9394E079
:100220009F83C7C0AFE4B0E0EFE4F0E0808181607D
:100230008C93AFE4B0E0EFE4F0E080818D7F8C93AD
:10024000AEE4B0E0EEE4F0E08081877F8C93AEE432
:10025000B0E0EEE4F0E080818F7E8C9324E02F8389
:10026000A8C0AFE4B0E0EFE4F0E080818E7F8C9333
:10027000AFE4B0E0EFE4F0E080818D7F8C93AEE4FA
:10028000B0E0EEE4F0E0808188608C93AEE4B0E012
:10029000EEE4F0E080818F7E8C9334E03F8389C070
:1002A000AFE4B0E0EFE4F0E0808181608C93AFE4F4
:1002B000B0E0EFE4F0E080818D7F8C93AEE4B0E0BD
:1002C000EEE4F0E0808188608C93AEE4B0E0EEE490
:1002D000F0E080818F7E8C9384E08F836AC091E010
:1002E0009F8367C08A81282F30E03C832B838B81DA
:1002F0009C818130910531F12B813C812230310587
:100300002CF48B819C81009761F04FC02B813C8144
:100310002230310541F18B819C8183309105A1F11F
:1003200044C0A5E4B0E0E5E4F0E080818F7B8C93ED
:10033000A5E4B0E0E5E4F0E08081877F8C9394E071
:100340009F8337C0A5E4B0E0E5E4F0E080818064FD
:100350008C93A5E4B0E0E5E4F0E08081877F8C93A6
:1003600024E02F8326C0A5E4B0E0E5E4F0E080813E
:100370008F7B8C93A5E4B0E0E5E4F0E080818860B9
:100380008C9334E03F8315C0A5E4B0E0E5E4F0E0F1
:10039000808180648C93A5E4B0E0E5E4F0E08081A6
:1003A00088608C9384E08F8304C091E09F8301C0B8
:1003B0001F828F812B960FB6F894DEBF0FBECDBF84
:1003C000CF91DF910895DF93CF93CDB7DEB72C9710
:1003D0000FB6F894DEBF0FBECDBF89837B836A83DF
:1003E0008981282F30E03E832D838D819E81823646
:1003F000910509F4AFC02D813E812336310509F402
:100400004CC18D819E818136910509F0E9C12A8117
:100410003B8138872F838F8198858034910509F43B
:100420004EC02F8138852134310550F48F81988555
:100430000097A9F02F8138852830310541F187C018
:100440008F81988521E08030920709F450C08F8118
:10045000988524E08030920709F461C078C0A3E554
:10046000B0E0E3E5F0E0808181608C93A3E5B0E04B
:10047000E3E5F0E080818D7F8C93A3E5B0E0E3E5D8
:10048000F0E080818B7F8C9334E03C83AAC1A3E5AC
:10049000B0E0E3E5F0E080818E7F8C93A3E5B0E0EF
:1004A000E3E5F0E0808182608C93A3E5B0E0E3E5D2
:1004B000F0E080818B7F8C9384E08C8392C1A3E5F4
:1004C000B0E0E3E5F0E0808181608C93A3E5B0E0EB
:1004D000E3E5F0E0808182608C93A3E5B0E0E3E5A2
:1004E000F0E080818B7F8C9394E09C837AC1A3E5BC
:1004F000B0E0E3E5F0E080818E7F8C93A3E5B0E08F
:10050000E3E5F0E080818D7F8C93A3E5B0E0E3E547
:10051000F0E0808184608C9324E02C8362C1A3E5A9
:10052000B0E0E3E5F0E0808181608C93A3E5B0E08A
:10053000E3E5F0E080818D7F8C93A3E5B0E0E3E517
:10054000F0E0808184608C9334E03C834AC181E098
:100550008C8347C12A813B813A87298789859A857F
:100560008034910509F44EC029853A85213431053E
:1005700050F489859A850097A9F029853A85283015
:10058000310541F187C089859A8521E08030920745
:1005900009F450C089859A8524E08030920709F4D7
:1005A00061C078C0AEE4B0E0EEE4F0E0808181604C
:1005B0008C93AEE4B0E0EEE4F0E080818D7F8C932C
:1005C000AEE4B0E0EEE4F0E080818B7F8C9334E029
:1005D0003C8307C1AEE4B0E0EEE4F0E080818E7FC2
:1005E0008C93AEE4B0E0EEE4F0E0808182608C9326
:1005F000AEE4B0E0EEE4F0E080818B7F8C9384E0A9
:100600008C83EFC0AEE4B0E0EEE4F0E08081816086
:100610008C93AEE4B0E0EEE4F0E0808182608C93F5
:10062000AEE4B0E0EEE4F0E080818B7F8C9394E068
:100630009C83D7C0AEE4B0E0EEE4F0E080818E7F32
:100640008C93AEE4B0E0EEE4F0E080818D7F8C939B
:10065000AEE4B0E0EEE4F0E0808184608C9324E0CE
:100660002C83BFC0AEE4B0E0EEE4F0E080818160B6
:100670008C93AEE4B0E0EEE4F0E080818D7F8C936B
:10068000AEE4B0E0EEE4F0E0808184608C9334E08E
:100690003C83A7C081E08C83A4C02A813B813C8736
:1006A0002B878B859C858034910509F44EC02B8562
:1006B0003C852134310550F48B859C850097A9F049
:1006C0002B853C852830310541F187C08B859C8581
:1006D00021E08030920709F450C08B859C8524E08E
:1006E0008030920709F461C078C0A5E4B0E0E5E489
:1006F000F0E0808181608C93A5E4B0E0E5E4F0E077
:1007000080818D7F8C93A5E4B0E0E5E4F0E080810A
:100710008B7F8C9334E03C8364C0A5E4B0E0E5E4D7
:10072000F0E080818E7F8C93A5E4B0E0E5E4F0E01A
:10073000808182608C93A5E4B0E0E5E4F0E0808104
:100740008B7F8C9384E08C834CC0A5E4B0E0E5E41F
:10075000F0E0808181608C93A5E4B0E0E5E4F0E016
:10076000808182608C93A5E4B0E0E5E4F0E08081D4
:100770008B7F8C9394E09C8334C0A5E4B0E0E5E4E7
:10078000F0E080818E7F8C93A5E4B0E0E5E4F0E0BA
:1007900080818D7F8C93A5E4B0E0E5E4F0E080817A
:1007A00084608C9324E02C831CC0A5E4B0E0E5E4D5
:1007B000F0E0808181608C93A5E4B0E0E5E4F0E0B6
:1007C00080818D7F8C93A5E4B0E0E5E4F0E080814A
:1007D00084608C9334E03C8304C081E08C8301C04E
:1007E0001C828C812C960FB6F894DEBF0FBECDBF55
:1007F000CF91DF910895DF93CF93CDB7DEB72D97DB
:100800000FB6F894DEBF0FBECDBF89836A835C83C9
:100810004B838981282F30E03D872C878C859D85EF
:100820008236910599F12C853D852336310509F4F1
:1008300066C08C859D858136910509F08CC08A81C2
:10084000282F30E03B872A878A859B85009731F0E7
:100850002A853B852230310559F015C0E8E5F0E0E6
:1008600080818170EB81FC81808334E0398774C0A2
:10087000E8E5F0E0808186958170EB81FC818083E2
:1008800084E0898769C091E0998766C08A81282FB2
:1008900030E038872F838F819885009731F02F8142
:1008A00038852230310569F027C0E8E5F0E0808125
:1008B000869586958170EB81FC81808334E0398751
:1008C0004BC0E8E5F0E0808182958F708170EB810C
:1008D000FC818083EB81FC818081982FE8E5F0E04A
:1008E00080818695869586958270892BEB81FC8127
:1008F000808384E0898730C091E099872DC08A8108
:10090000282F30E03E832D838D819E81009731F02A
:100910002D813E812230310579F01AC0E8E5F0E002
:10092000808182958695869583708170EB81FC81AC
:10093000808334E0398710C0E8E5F0E08081881FCB
:100940008827881FEB81FC81808384E0898704C02D
:1009500091E0998701C0198689852D960FB6F89484
:10096000DEBF0FBECDBFCF91DF910895DF93CF9350
:10097000CDB7DEB72E970FB6F894DEBF0FBECDBF52
:1009800089836A835C834B838981282F30E03C878D
:100990002B878B859C8582369105D1F12B853C85F3
:1009A0002336310509F46DC08B859C858136910510
:1009B00009F093C08A81282F30E03A8729878985FA
:1009C0009A85009731F029853A852230310579F0F2
:1009D0001CC0A8E5B0E0E8E5F0E0808181608C9380
:1009E000E2E5F0E08B81808334E03D8777C0A8E5C5
:1009F000B0E0E8E5F0E0808182608C93E2E5F0E031
:100A00008B81808384E08D8769C091E09D8766C07B
:100A10008A81282F30E038872F838F81988500972F
:100A200031F02F8138852230310589F027C0A8E5C3
:100A3000B0E0E8E5F0E0808184608C93ECE4F0E0E5
:100A40008B819C819183808334E03D8747C0A8E5FA
:100A5000B0E0E8E5F0E0808180618C93A8E5B0E04B
:100A6000E8E5F0E0808188608C93ECE4F0E08B8135
:100A70009C819183808384E08D8730C091E09D8745
:100A80002DC08A81282F30E03E832D838D819E8169
:100A9000009731F02D813E812230310569F01AC076
:100AA000A8E5B0E0E8E5F0E0808180648C93E4E4C0
:100AB000F0E08B81808314C0A8E5B0E0E8E5F0E0C9
:100AC000808180648C93E4E4F0E08B81808334E067
:100AD0003D8704C081E08D8701C01D869D859E876E
:100AE0008E852E960FB6F894DEBF0FBECDBFCF9188
:100AF000DF910895DF93CF93CDB7DEB72B970FB675
:100B0000F894DEBF0FBECDBF89836A838981282F09
:100B100030E03B872A878A859B858130910509F4DF
:100B20008FC02A853B852230310509F40DC18A85A5
:100B30009B85009709F03DC18A81282F30E03987D5
:100B40002887888599858236910579F128853985A8
:100B50002336310534F4888599858136910569F00D
:100B60006CC02885398523363105B9F1888599858A
:100B70008436910509F449C060C0A5E5B0E0E5E51B
:100B8000F0E080818E7F8C93A5E5B0E0E5E5F0E0B4
:100B900080818D7F8C93ABE5B0E0EBE5F0E0808168
:100BA00080648C9392E09F8305C1A5E5B0E0E5E504
:100BB000F0E0808181608C93A5E5B0E0E5E5F0E0B0
:100BC00080818D7F8C93ABE5B0E0EBE5F0E0808138
:100BD00080648C9322E02F83EDC0A5E5B0E0E5E5CD
:100BE000F0E080818E7F8C93A5E5B0E0E5E5F0E054
:100BF000808182608C93ABE5B0E0EBE5F0E0808132
:100C000080648C9332E03F83D5C0A5E5B0E0E5E594
:100C1000F0E0808181608C93A5E5B0E0E5E5F0E04F
:100C2000808182608C93ABE5B0E0EBE5F0E0808101
:100C300080648C9382E08F83BDC091E09F83BAC0B3
:100C40008A81282F30E03E832D838D819E818236DC
:100C5000910579F12D813E812336310534F48D8162
:100C60009E818136910569F06CC02D813E812336CD
:100C70003105B9F18D819E818436910509F449C011
:100C800060C0A5E5B0E0E5E5F0E080818B7F8C9366
:100C9000A5E5B0E0E5E5F0E08081877F8C93ABE5EA
:100CA000B0E0EBE5F0E0808180688C9392E09F8378
:100CB00081C0A5E5B0E0E5E5F0E0808184608C933B
:100CC000A5E5B0E0E5E5F0E08081877F8C93ABE5BA
:100CD000B0E0EBE5F0E0808180688C9322E02F8328
:100CE00069C0A5E5B0E0E5E5F0E080818B7F8C93FD
:100CF000A5E5B0E0E5E5F0E0808188608C93ABE5A8
:100D0000B0E0EBE5F0E0808180688C9332E03F83D7
:100D100051C0A5E5B0E0E5E5F0E0808184608C930A
:100D2000A5E5B0E0E5E5F0E0808188608C93ABE577
:100D3000B0E0EBE5F0E0808180688C9382E08F8307
:100D400039C091E09F8336C08A81282F30E03C83F0
:100D50002B838B819C818336910531F02B813C81E3
:100D60002436310591F022C0A4E5B0E0E4E5F0E0DE
:100D700080818F7B8C93ABE5B0E0EBE5F0E0808188
:100D800080628C9332E03F8315C0A4E5B0E0E4E5D7
:100D9000F0E0808180648C93ABE5B0E0EBE5F0E0BF
:100DA000808180628C9382E08F8304C091E09F8376
:100DB00001C01F828F812B960FB6F894DEBF0FBE45
:100DC000CDBFCF91DF910895DF93CF93CDB7DEB73D
:100DD0007894CF91DF910895DF93CF93CDB7DEB7AD
:100DE0002E970FB6F894DEBF0FBECDBF89836A83FE
:100DF0004B838A81883010F01E861DC18981282F7F
:100E000030E03D872C878C859D858234910509F4DF
:100E100056C02C853D852334310534F48C859D8561
:100E20008134910571F005C12C853D852334310550
:100E300009F483C08C859D858434910509F4BBC079
:100E4000F8C08B81282F30E03B872A878A859B85D5
:100E50000097D9F02A853B852130310569F5AAE351
:100E6000B0E0EAE3F0E08081482F8A81282F30E06B
:100E700081E090E0022E02C0880F991F0A94E2F7E9
:100E8000842B8C9333E03E87D6C0AAE3B0E0EAE33C
:100E9000F0E08081482F8A81282F30E081E090E0C7
:100EA000022E02C0880F991F0A94E2F780958423CE
:100EB0008C9383E08E87BFC092E09E87BCC08B81FD
:100EC000282F30E039872887888599850097D9F0C1
:100ED000288539852130310569F5A7E3B0E0E7E3DE
:100EE000F0E08081482F8A81282F30E081E090E077
:100EF000022E02C0880F991F0A94E2F7842B8C936C
:100F000033E03E8798C0A7E3B0E0E7E3F0E08081FC
:100F1000482F8A81282F30E081E090E0022E02C025
:100F2000880F991F0A94E2F7809584238C9383E0BD
:100F30008E8781C092E09E877EC08B81282F30E013
:100F40003F832E838E819F810097D9F02E813F8130
:100F50002130310569F5A4E3B0E0E4E3F0E08081FD
:100F6000482F8A81282F30E081E090E0022E02C0D5
:100F7000880F991F0A94E2F7842B8C9333E03E8705
:100F80005AC0A4E3B0E0E4E3F0E08081482F8A8116
:100F9000282F30E081E090E0022E02C0880F991FD8
:100FA0000A94E2F7809584238C9383E08E8743C074
:100FB00092E09E8740C08B81282F30E03D832C83B8
:100FC0008C819D810097D9F02C813D8121303105A4
:100FD00069F5A1E3B0E0E1E3F0E08081482F8A8188
:100FE000282F30E081E090E0022E02C0880F991F88
:100FF0000A94E2F7842B8C9333E03E871CC0A1E374
:10100000B0E0E1E3F0E08081482F8A81282F30E0D2
:1010100081E090E0022E02C0880F991F0A94E2F747
:10102000809584238C9383E08E8705C092E09E8711
:1010300002C021E02E878E852E960FB6F894DEBF73
:101040000FBECDBFCF91DF910895DF93CF93CDB782
:10105000DEB72E970FB6F894DEBF0FBECDBF8983E3
:101060006A834B838A81883010F01E861DC1898176
:10107000282F30E03D872C878C859D858234910513
:1010800009F456C02C853D852334310534F48C8514
:101090009D858134910571F005C12C853D852334F2
:1010A000310509F483C08C859D858434910509F44C
:1010B000BBC0F8C08B81282F30E03B872A878A8508
:1010C0009B850097D9F02A853B852130310569F54C
:1010D000ABE3B0E0EBE3F0E08081482F8A81282F7A
:1010E00030E081E090E0022E02C0880F991F0A9440
:1010F000E2F7842B8C9333E03E87D6C0ABE3B0E0BD
:10110000EBE3F0E08081482F8A81282F30E081E0F6
:1011100090E0022E02C0880F991F0A94E2F7809592
:1011200084238C9383E08E87BFC092E09E87BCC0EF
:101130008B81282F30E0398728878885998500970B
:10114000D9F0288539852130310569F5A8E3B0E06B
:10115000E8E3F0E08081482F8A81282F30E081E0A9
:1011600090E0022E02C0880F991F0A94E2F7842BA8
:101170008C9333E03E8798C0A8E3B0E0E8E3F0E06A
:101180008081482F8A81282F30E081E090E0022E74
:1011900002C0880F991F0A94E2F7809584238C93EC
:1011A00083E08E8781C092E09E877EC08B81282F4E
:1011B00030E03F832E838E819F810097D9F02E816E
:1011C0003F812130310569F5A5E3B0E0E5E3F0E0CA
:1011D0008081482F8A81282F30E081E090E0022E24
:1011E00002C0880F991F0A94E2F7842B8C9333E096
:1011F0003E875AC0A5E3B0E0E5E3F0E08081482FE8
:101200008A81282F30E081E090E0022E02C0880F12
:10121000991F0A94E2F7809584238C9383E08E874C
:1012200043C092E09E8740C08B81282F30E03D83F1
:101230002C838C819D810097D9F02C813D812130B8
:10124000310569F5A2E3B0E0E2E3F0E08081482FE8
:101250008A81282F30E081E090E0022E02C0880FC2
:10126000991F0A94E2F7842B8C9333E03E871CC0CD
:10127000A2E3B0E0E2E3F0E08081482F8A81282FEA
:1012800030E081E090E0022E02C0880F991F0A949E
:10129000E2F7809584238C9383E08E8705C092E0EB
:1012A0009E8702C021E02E878E852E960FB6F89479
:1012B000DEBF0FBECDBFCF91DF910895DF93CF93F7
:1012C000CDB7DEB727970FB6F894DEBF0FBECDBF00
:1012D00089836A835C834B838A81883010F01F8204
:1012E0007BC08981282F30E03E832D834D815E8134
:1012F0004234510569F18D819E818334910534F426
:101300002D813E812134310569F064C04D815E81BB
:101310004334510599F18D819E818434910509F4FE
:1013200043C058C0E9E3F0E08081282F30E08A8193
:10133000882F90E0A90102C0559547958A95E2F75C
:10134000CA018170EB81FC81808353E05F8344C0DC
:10135000E6E3F0E08081282F30E08A81882F90E05A
:10136000A90102C0559547958A95E2F7CA01817097
:10137000EB81FC81808353E05F832EC0E3E3F0E0E8
:101380008081282F30E08A81882F90E0A90102C057
:10139000559547958A95E2F7CA018170EB81FC81EA
:1013A000808353E05F8318C0E0E3F0E08081282F62
:1013B00030E08A81882F90E0A90102C055954795B9
:1013C0008A95E2F7CA018170EB81FC81808353E04A
:1013D0005F8302C081E08F838F8127960FB6F894D8
:1013E000DEBF0FBECDBFCF91DF910895DF93CF93C6
:1013F00000D000D00F92CDB7DEB789836A838A818F
:10140000883010F01D827AC08981282F30E03C831B
:101410002B838B819C818234910569F12B813C81E6
:101420002334310534F48B819C818134910569F03A
:1014300063C02B813C812334310591F18B819C81E8
:101440008434910509F442C057C0ABE3B0E0EBE34C
:10145000F0E08081482F8A81282F30E081E090E001
:10146000022E02C0880F991F0A94E2F784278C93FA
:1014700093E09D8343C0A8E3B0E0E8E3F0E080811F
:10148000482F8A81282F30E081E090E002C0880F49
:10149000991F2A95E2F784278C9323E02D832EC091
:1014A000A5E3B0E0E5E3F0E08081482F8A81282FB2
:1014B00030E081E090E0022E02C0880F991F0A946C
:1014C000E2F784278C9333E03D8318C0A2E3B0E0B9
:1014D000E2E3F0E08081482F8A81282F30E081E02C
:1014E00090E0022E02C0880F991F0A94E2F7842729
:1014F0008C9383E08D8302C091E09D838D810F905A
:101500000F900F900F900F90CF91DF910895DF9380
:10151000CF9300D000D0CDB7DEB78A836B838A81AA
:101520006B8141E00E94EC0689838981833019F444
:1015300081E08C8301C01C828C810F900F900F90F2
:101540000F90CF91DF910895DF93CF9300D000D01B
:10155000CDB7DEB78A836B838A816B8141E00E94BD
:10156000250889838981833019F481E08C8301C047
:101570001C828C810F900F900F900F90CF91DF9174
:101580000895DF93CF9300D000D0CDB7DEB78A8324
:101590006B838A816B8140E00E9425088983898161
:1015A000833019F481E08C8301C01C828C810F9000
:1015B0000F900F900F90CF91DF910895DF93CF930D
:1015C00000D000D0CDB7DEB78A836B838A816B8170
:1015D0000E94F60989838981833019F481E08C8324
:1015E00001C01C828C810F900F900F900F90CF91B3
:1015F000DF910895DF93CF9300D000D0CDB7DEB751
:101600008A836B838A816B8140E00E94EC06898328
:101610008981833019F481E08C8301C01C828C8124
:101620000F900F900F900F90CF91DF910895DF935F
:10163000CF9300D000D000D0CDB7DEB78A836B83C4
:101640005D834C832C813D818A816B81A9010E943D
:101650005E0989838981833019F481E08E8301C01A
:101660001E828E8126960FB6F894DEBF0FBECDBFC8
:10167000CF91DF9108951F920F920FB60F92112410
:101680002F933F934F935F936F937F938F939F938A
:10169000AF93BF93EF93FF93DF93CF93CDB7DEB7B5
:1016A0000E94990BCF91DF91FF91EF91BF91AF9184
:1016B0009F918F917F916F915F914F913F912F916A
:1016C0000F900FBE0F901F901895DF93CF93CDB75B
:1016D000DEB780E062E60E947A050E94E40681E4BB
:1016E00062E00E94870A81E461E00E94870A81E447
:1016F00060E00E94870A82E462E00E94870A82E436
:1017000061E00E94870A82E460E00E94870A81E625
:1017100060E00E94490081E660E074E00E94E3011D
:1017200081E660E04AE050E00E94B6040E94530C5B
:10173000FDCFDF93CF93CDB7DEB7809163008F5F8E
:101740008093630080916300813021F48091620076
:101750008093640080916300823009F0A1C0809181
:101760006200282F30E080916400882F90E0A9016A
:10177000481B590BCA01883091050CF08FC010929C
:10178000620081E660E04AE050E00E94B604809189
:101790006500882309F04FC01AC020E630E081E6DA
:1017A00060E0A9010E94FB0380916000813059F440
:1017B00081E660E04AE050E00E94B6048091620059
:1017C0008F5F809362000E94BF0C0E941E0D80916B
:1017D0006200843110F384E18093620083E59CE031
:1017E000982F81E6692F4AE050E00E94B60456C067
:1017F00020E630E081E660E0A9010E94FB038091D1
:101800006000813059F481E660E04AE050E00E94D7
:10181000B604809162008F5F8093620080916200C5
:1018200095E0692F0E94440D892F882321F40E949E
:10183000D20C0E940B0D809162008431C8F21AC054
:1018400020E630E081E660E0A9010E94FB03809180
:101850006000813059F481E660E04AE050E00E9487
:10186000B604809162008F5F809362000E94BF0C7B
:101870000E941E0D80916200843120F080916200F0
:101880008832F0F284E18093620083E59CE0982F37
:1018900081E6692F4AE050E00E94B604109263008E
:1018A000CF91DF910895DF93CF93CDB7DEB720E6D8
:1018B00030E081E660E0A9010E94FB0380916000B6
:1018C000813059F481E660E04AE050E00E94B604BD
:1018D000809162008F5F809362008091620084310A
:1018E00030F40E94BF0C0E941E0D10926500809182
:1018F000620095E0692F0E94440D892F882379F4B6
:1019000080916200843158F080916200883238F40E
:101910000E94D20C0E94F80C81E0809365008091B7
:101920006200883258F0809162008C3338F40E9453
:10193000E50C0E94F80C82E08093650080916200C3
:1019400095E0692F0E94440D892F882379F48091B6
:1019500062008C3358F080916200803538F40E9428
:10196000D20C0E94F80C81E08093650080916200A7
:10197000803511F410926200CF91DF910895DF93CA
:10198000CF93CDB7DEB781E460E00E94A40A81E482
:1019900061E00E94C10A81E462E00E94C10ACF9125
:1019A000DF910895DF93CF93CDB7DEB781E460E098
:1019B0000E94C10A81E461E00E94DE0A81E462E0E3
:1019C0000E94C10ACF91DF910895DF93CF93CDB7E5
:1019D000DEB781E460E00E94C10A81E461E00E9418
:1019E000C10A81E462E00E94A40ACF91DF910895C8
:1019F000DF93CF93CDB7DEB782E460E00E94A40A04
:101A000082E461E00E94C10A82E462E00E94C10AAD
:101A1000CF91DF910895DF93CF93CDB7DEB782E406
:101A200060E00E94C10A82E461E00E94DE0A82E472
:101A300062E00E94C10ACF91DF910895DF93CF93B6
:101A4000CDB7DEB782E460E00E94C10A82E461E0C3
:101A50000E94C10A82E462E00E94A40ACF91DF9151
:101A60000895DF93CF93CDB7DEB782E460E00E94A4
:101A7000C10A82E461E00E94C10A82E462E00E943D
:101A8000C10ACF91DF910895991B79E004C0991F95
:101A9000961708F0961B881F7A95C9F780950895C8
:041AA000F894FFCFE8
:021AA40001003F
:00000001FF
